{
  "contractName": "SimpleToken",
  "abi": [
    {
      "constant": true,
      "inputs": [
        {
          "name": "",
          "type": "address"
        }
      ],
      "name": "balances",
      "outputs": [
        {
          "name": "",
          "type": "int256"
        }
      ],
      "payable": false,
      "stateMutability": "view",
      "type": "function",
      "signature": "0x27e235e3"
    },
    {
      "constant": true,
      "inputs": [],
      "name": "initialSupply",
      "outputs": [
        {
          "name": "",
          "type": "int256"
        }
      ],
      "payable": false,
      "stateMutability": "view",
      "type": "function",
      "signature": "0x378dc3dc"
    },
    {
      "constant": true,
      "inputs": [],
      "name": "owner",
      "outputs": [
        {
          "name": "",
          "type": "address"
        }
      ],
      "payable": false,
      "stateMutability": "view",
      "type": "function",
      "signature": "0x8da5cb5b"
    },
    {
      "inputs": [],
      "payable": true,
      "stateMutability": "payable",
      "type": "constructor",
      "signature": "constructor"
    },
    {
      "anonymous": false,
      "inputs": [
        {
          "indexed": true,
          "name": "_from",
          "type": "address"
        },
        {
          "indexed": true,
          "name": "_to",
          "type": "address"
        },
        {
          "indexed": false,
          "name": "amount",
          "type": "int256"
        }
      ],
      "name": "TransferToken",
      "type": "event",
      "signature": "0xcb7f062f1e4d16bda640db4c02549eef7f5acb10785cca68843cbf76e9b93089"
    },
    {
      "constant": false,
      "inputs": [
        {
          "name": "reciever",
          "type": "address"
        },
        {
          "name": "amount",
          "type": "uint256"
        }
      ],
      "name": "transferCoin",
      "outputs": [
        {
          "name": "token",
          "type": "int256"
        }
      ],
      "payable": false,
      "stateMutability": "nonpayable",
      "type": "function",
      "signature": "0x8dde60fa"
    },
    {
      "constant": true,
      "inputs": [
        {
          "name": "amount",
          "type": "int256"
        }
      ],
      "name": "validateTransaction",
      "outputs": [
        {
          "name": "sufficient",
          "type": "bool"
        }
      ],
      "payable": false,
      "stateMutability": "view",
      "type": "function",
      "signature": "0x057c206f"
    },
    {
      "constant": true,
      "inputs": [
        {
          "name": "amount",
          "type": "uint256"
        },
        {
          "name": "conversionRate",
          "type": "int256"
        }
      ],
      "name": "convertToTokens",
      "outputs": [
        {
          "name": "convertedVal",
          "type": "int256"
        }
      ],
      "payable": false,
      "stateMutability": "pure",
      "type": "function",
      "signature": "0x3817b9df"
    },
    {
      "constant": true,
      "inputs": [
        {
          "name": "addr",
          "type": "address"
        }
      ],
      "name": "getBalance",
      "outputs": [
        {
          "name": "",
          "type": "int256"
        }
      ],
      "payable": false,
      "stateMutability": "view",
      "type": "function",
      "signature": "0xf8b2cb4f"
    },
    {
      "constant": true,
      "inputs": [],
      "name": "getContractDescription",
      "outputs": [
        {
          "name": "",
          "type": "address"
        }
      ],
      "payable": false,
      "stateMutability": "view",
      "type": "function",
      "signature": "0xd12bcb12"
    },
    {
      "constant": true,
      "inputs": [],
      "name": "getAllEthAddresses",
      "outputs": [
        {
          "name": "",
          "type": "address[]"
        }
      ],
      "payable": false,
      "stateMutability": "view",
      "type": "function",
      "signature": "0x830c16be"
    }
  ],
  "bytecode": "0x6080604052625265c06003556003546000803373ffffffffffffffffffffffffffffffffffffffff1673ffffffffffffffffffffffffffffffffffffffff168152602001908152602001600020819055506108b48061005f6000396000f3fe608060405260043610610099576000357c0100000000000000000000000000000000000000000000000000000000900463ffffffff168063057c206f1461009e57806327e235e3146100db578063378dc3dc146101185780633817b9df14610143578063830c16be146101805780638da5cb5b146101ab5780638dde60fa146101d6578063d12bcb1214610213578063f8b2cb4f1461023e575b600080fd5b3480156100aa57600080fd5b506100c560048036036100c0919081019061064b565b61027b565b6040516100d2919061079f565b60405180910390f35b3480156100e757600080fd5b5061010260048036036100fd91908101906105e6565b6102d6565b60405161010f91906107ba565b60405180910390f35b34801561012457600080fd5b5061012d6102ee565b60405161013a91906107ba565b60405180910390f35b34801561014f57600080fd5b5061016a60048036036101659190810190610674565b6102f4565b60405161017791906107ba565b60405180910390f35b34801561018c57600080fd5b50610195610301565b6040516101a2919061077d565b60405180910390f35b3480156101b757600080fd5b506101c061038f565b6040516101cd9190610762565b60405180910390f35b3480156101e257600080fd5b506101fd60048036036101f8919081019061060f565b6103b5565b60405161020a91906107ba565b60405180910390f35b34801561021f57600080fd5b5061022861055a565b6040516102359190610747565b60405180910390f35b34801561024a57600080fd5b50610265600480360361026091908101906105e6565b610562565b60405161027291906107ba565b60405180910390f35b6000816000803373ffffffffffffffffffffffffffffffffffffffff1673ffffffffffffffffffffffffffffffffffffffff1681526020019081526020016000205412156102cc57600090506102d1565b600190505b919050565b60006020528060005260406000206000915090505481565b60035481565b6000818302905092915050565b6060600280548060200260200160405190810160405280929190818152602001828054801561038557602002820191906000526020600020905b8160009054906101000a900473ffffffffffffffffffffffffffffffffffffffff1673ffffffffffffffffffffffffffffffffffffffff168152602001906001019080831161033b575b5050505050905090565b600160009054906101000a900473ffffffffffffffffffffffffffffffffffffffff1681565b6000806103c483613c286102f4565b905060006103d18261027b565b905060011515811515141561054d57816000803373ffffffffffffffffffffffffffffffffffffffff1673ffffffffffffffffffffffffffffffffffffffff16815260200190815260200160002060008282540392505081905550816000808773ffffffffffffffffffffffffffffffffffffffff1673ffffffffffffffffffffffffffffffffffffffff1681526020019081526020016000206000828254019250508190555060028590806001815401808255809150509060018203906000526020600020016000909192909190916101000a81548173ffffffffffffffffffffffffffffffffffffffff021916908373ffffffffffffffffffffffffffffffffffffffff160217905550508473ffffffffffffffffffffffffffffffffffffffff163373ffffffffffffffffffffffffffffffffffffffff167fcb7f062f1e4d16bda640db4c02549eef7f5acb10785cca68843cbf76e9b930898460405161053b91906107ba565b60405180910390a38192505050610554565b6000925050505b92915050565b600033905090565b60008060008373ffffffffffffffffffffffffffffffffffffffff1673ffffffffffffffffffffffffffffffffffffffff168152602001908152602001600020549050919050565b60006105b68235610854565b905092915050565b60006105ca8235610866565b905092915050565b60006105de8235610870565b905092915050565b6000602082840312156105f857600080fd5b6000610606848285016105aa565b91505092915050565b6000806040838503121561062257600080fd5b6000610630858286016105aa565b9250506020610641858286016105d2565b9150509250929050565b60006020828403121561065d57600080fd5b600061066b848285016105be565b91505092915050565b6000806040838503121561068757600080fd5b6000610695858286016105d2565b92505060206106a6858286016105be565b9150509250929050565b6106b98161080c565b82525050565b6106c8816107fa565b82525050565b60006106d9826107e2565b8084526020840193506106eb836107d5565b60005b8281101561071d576107018683516106bf565b61070a826107ed565b91506020860195506001810190506106ee565b50849250505092915050565b6107328161081e565b82525050565b6107418161082a565b82525050565b600060208201905061075c60008301846106bf565b92915050565b600060208201905061077760008301846106b0565b92915050565b6000602082019050818103600083015261079781846106ce565b905092915050565b60006020820190506107b46000830184610729565b92915050565b60006020820190506107cf6000830184610738565b92915050565b6000602082019050919050565b600081519050919050565b6000602082019050919050565b600061080582610834565b9050919050565b600061081782610834565b9050919050565b60008115159050919050565b6000819050919050565b600073ffffffffffffffffffffffffffffffffffffffff82169050919050565b600061085f82610834565b9050919050565b6000819050919050565b600081905091905056fea265627a7a72305820b0e0448a8cd9c1bae7419d6084440d6a2e9cd00df716c9ba10676af485d56d4a6c6578706572696d656e74616cf50037",
  "source": "pragma solidity >=0.4.21 < 0.6.0;\npragma experimental ABIEncoderV2;\n\n// ERC20 Token\ncontract SimpleToken {\n\n    //create an array with all balances\n    mapping (address => int) public balances;\n    address payable public owner;\n    address[] transferedTo;\n    int public initialSupply = 5400000; // initialize supply to 5400000 units (tokens)\n\n    // log the transfer coin from one address to another\n    event TransferToken(address indexed _from, address indexed _to, int amount);\n\n    constructor () public payable {\n        /* set the owner to the creator of this contract */\n        balances[msg.sender] = initialSupply;\n    }\n\n    // send coin from account to account and return amount of tokens transfered\n    function transferCoin(address reciever, uint amount) public returns (int token) {\n\n        // amount is in Eth, convert to tokens and check if sender has enough tokens\n        int tokens = convertToTokens(amount, 15400);\n        bool valid = validateTransaction(tokens);\n\n        if( valid == true ) {\n            balances[msg.sender] -= tokens;\n            balances[reciever] += tokens;\n\n            // add reciever account to array of accounts\n            transferedTo.push(reciever);\n            emit TransferToken(msg.sender, reciever, tokens);\n            return int(tokens);\n        } else {\n            // transaction invalid, return 0\n            return 0;\n        }\n    }\n\n    function validateTransaction (int amount) public view returns (bool sufficient) {\n        // check if sender has enough tokens to send to account\n        if (balances[msg.sender] < amount) return false;\n        else return true;\n    }\n\n    function convertToTokens(uint amount, int conversionRate) public pure returns (int convertedVal) {\n        // multiply by the conversion rate to get value of tokens equivalent to amount of ether sent\n        return int(amount) * conversionRate;\n    }\n\n    // show account balance\n    function getBalance(address addr) public view returns (int) {\n        return int(balances[addr]);\n    }\n\n    // get contract description\n    function getContractDescription() public view returns (address) {\n        return address(msg.sender);\n    }\n\n    function getAllEthAddresses() public view returns (address[] memory) {\n        return transferedTo;\n    }\n\n}",
  "sourcePath": "D:/code/solidity/exercise/contracts/SimpleToken.sol",
  "compiler": {
    "name": "solc",
    "version": "0.5.0+commit.1d4f565a.Emscripten.clang"
  },
  "schemaVersion": "3.0.1",
  "updatedAt": "2019-01-27T13:02:11.648Z",
  "devdoc": {
    "methods": {}
  },
  "userdoc": {
    "methods": {}
  }
}