{
  "contractName": "SimpleToken",
  "abi": [
    {
      "constant": true,
      "inputs": [
        {
          "name": "",
          "type": "address"
        }
      ],
      "name": "balances",
      "outputs": [
        {
          "name": "",
          "type": "uint256"
        }
      ],
      "payable": false,
      "stateMutability": "view",
      "type": "function",
      "signature": "0x27e235e3"
    },
    {
      "constant": true,
      "inputs": [],
      "name": "initialSupply",
      "outputs": [
        {
          "name": "",
          "type": "uint256"
        }
      ],
      "payable": false,
      "stateMutability": "view",
      "type": "function",
      "signature": "0x378dc3dc"
    },
    {
      "constant": true,
      "inputs": [],
      "name": "owner",
      "outputs": [
        {
          "name": "",
          "type": "address"
        }
      ],
      "payable": false,
      "stateMutability": "view",
      "type": "function",
      "signature": "0x8da5cb5b"
    },
    {
      "inputs": [],
      "payable": true,
      "stateMutability": "payable",
      "type": "constructor",
      "signature": "constructor"
    },
    {
      "anonymous": false,
      "inputs": [
        {
          "indexed": true,
          "name": "_from",
          "type": "address"
        },
        {
          "indexed": true,
          "name": "_to",
          "type": "address"
        },
        {
          "indexed": false,
          "name": "amount",
          "type": "uint256"
        }
      ],
      "name": "TransferCoin",
      "type": "event",
      "signature": "0xcd08573a62d4c56a47042e83efa834ec2f5ee43c9fa9d3e1c089d49eb8c7d50f"
    },
    {
      "constant": false,
      "inputs": [
        {
          "name": "reciever",
          "type": "address"
        },
        {
          "name": "amount",
          "type": "uint256"
        }
      ],
      "name": "transferCoin",
      "outputs": [
        {
          "name": "sufficient",
          "type": "bool"
        }
      ],
      "payable": false,
      "stateMutability": "nonpayable",
      "type": "function",
      "signature": "0x8dde60fa"
    },
    {
      "constant": true,
      "inputs": [
        {
          "name": "amount",
          "type": "uint256"
        },
        {
          "name": "conversionRate",
          "type": "uint256"
        }
      ],
      "name": "convert",
      "outputs": [
        {
          "name": "convertedVal",
          "type": "uint256"
        }
      ],
      "payable": false,
      "stateMutability": "pure",
      "type": "function",
      "signature": "0x96e4ee3d"
    },
    {
      "constant": true,
      "inputs": [
        {
          "name": "addr",
          "type": "address"
        }
      ],
      "name": "getBalance",
      "outputs": [
        {
          "name": "",
          "type": "uint256"
        }
      ],
      "payable": false,
      "stateMutability": "view",
      "type": "function",
      "signature": "0xf8b2cb4f"
    },
    {
      "constant": true,
      "inputs": [
        {
          "name": "acc",
          "type": "address"
        }
      ],
      "name": "getBalanceInEth",
      "outputs": [
        {
          "name": "",
          "type": "uint256"
        }
      ],
      "payable": false,
      "stateMutability": "view",
      "type": "function",
      "signature": "0x7bd703e8"
    }
  ],
  "bytecode": "0x6080604052625265c06002556002546000803273ffffffffffffffffffffffffffffffffffffffff1673ffffffffffffffffffffffffffffffffffffffff168152602001908152602001600020819055506105538061005f6000396000f3fe608060405260043610610083576000357c0100000000000000000000000000000000000000000000000000000000900463ffffffff16806327e235e314610088578063378dc3dc146100ed5780637bd703e8146101185780638da5cb5b1461017d5780638dde60fa146101d457806396e4ee3d14610247578063f8b2cb4f146102a0575b600080fd5b34801561009457600080fd5b506100d7600480360360208110156100ab57600080fd5b81019080803573ffffffffffffffffffffffffffffffffffffffff169060200190929190505050610305565b6040518082815260200191505060405180910390f35b3480156100f957600080fd5b5061010261031d565b6040518082815260200191505060405180910390f35b34801561012457600080fd5b506101676004803603602081101561013b57600080fd5b81019080803573ffffffffffffffffffffffffffffffffffffffff169060200190929190505050610323565b6040518082815260200191505060405180910390f35b34801561018957600080fd5b50610192610340565b604051808273ffffffffffffffffffffffffffffffffffffffff1673ffffffffffffffffffffffffffffffffffffffff16815260200191505060405180910390f35b3480156101e057600080fd5b5061022d600480360360408110156101f757600080fd5b81019080803573ffffffffffffffffffffffffffffffffffffffff16906020019092919080359060200190929190505050610366565b604051808215151515815260200191505060405180910390f35b34801561025357600080fd5b5061028a6004803603604081101561026a57600080fd5b8101908080359060200190929190803590602001909291905050506104c9565b6040518082815260200191505060405180910390f35b3480156102ac57600080fd5b506102ef600480360360208110156102c357600080fd5b81019080803573ffffffffffffffffffffffffffffffffffffffff1690602001909291905050506104df565b6040518082815260200191505060405180910390f35b60006020528060005260406000206000915090505481565b60025481565b6000610339610331836104df565b613c286104c9565b9050919050565b600160009054906101000a900473ffffffffffffffffffffffffffffffffffffffff1681565b6000816000803373ffffffffffffffffffffffffffffffffffffffff1673ffffffffffffffffffffffffffffffffffffffff1681526020019081526020016000205410156103b757600090506104c3565b816000803373ffffffffffffffffffffffffffffffffffffffff1673ffffffffffffffffffffffffffffffffffffffff16815260200190815260200160002060008282540392505081905550816000808573ffffffffffffffffffffffffffffffffffffffff1673ffffffffffffffffffffffffffffffffffffffff168152602001908152602001600020600082825401925050819055508273ffffffffffffffffffffffffffffffffffffffff163373ffffffffffffffffffffffffffffffffffffffff167fcd08573a62d4c56a47042e83efa834ec2f5ee43c9fa9d3e1c089d49eb8c7d50f846040518082815260200191505060405180910390a36104bd33610323565b50600190505b92915050565b600081838115156104d657fe5b04905092915050565b60008060008373ffffffffffffffffffffffffffffffffffffffff1673ffffffffffffffffffffffffffffffffffffffff16815260200190815260200160002054905091905056fea165627a7a72305820790fffa8acc7dd729241185184455d9af91a4aa6bfcf3a07699d616740e3cfac0029",
  "source": "pragma solidity >=0.4.21 < 0.6.0;\n\ncontract SimpleToken {\n\n    //create an array with all balances\n    mapping (address => uint256) public balances;\n    address public owner;\n    uint public initialSupply = 5400000;\n\n    // log the transfer coin from one address to another\n    event TransferCoin(address indexed _from, address indexed _to, uint amount);\n\n    constructor () public payable {\n        //require(msg.value == 350 ether, \"350 (5.4 million tokens) ether initial funding required\");\n        /* set the owner to the creator of this contract */\n        balances[tx.origin] = initialSupply;\n    }\n\n    // send coin from account to account and return sender balance\n    function transferCoin(address reciever, uint amount) public returns (bool sufficient) {\n        // If the amount is more than what user is trying to send, return sufficient = false\n        if (balances[msg.sender] < amount) return false;\n        // else deduct amount from sender, and increment it to reciever's account\n        else {\n            balances[msg.sender] -= amount;\n            balances[reciever] += amount;\n            emit TransferCoin(msg.sender, reciever, amount);\n            getBalanceInEth(msg.sender);\n            return true;// sufficient = true, transaction is complete\n        }\n    }\n\n    function convert(uint amount, uint conversionRate) public pure returns (uint convertedVal) {\n        // divide the amount of ether to the conversion rate to get token value\n        return amount / conversionRate;\n    }\n\n    // show account balance\n    function getBalance(address addr) public view returns (uint256) {\n        return balances[addr];\n    }\n\n    function getBalanceInEth(address acc) public view returns (uint) {\n        //  convert tokens to eth by dividing each ether by 15400\n        return convert(getBalance(acc),15400);\n    }\n}",
  "sourcePath": "D:/code/solidity/exercise/contracts/SimpleToken.sol",
  "compiler": {
    "name": "solc",
    "version": "0.5.0+commit.1d4f565a.Emscripten.clang"
  },
  "schemaVersion": "3.0.1",
  "updatedAt": "2019-01-25T11:41:14.209Z",
  "devdoc": {
    "methods": {}
  },
  "userdoc": {
    "methods": {}
  }
}