{
  "contractName": "SimpleToken",
  "abi": [
    {
      "constant": true,
      "inputs": [
        {
          "name": "",
          "type": "address"
        }
      ],
      "name": "balances",
      "outputs": [
        {
          "name": "",
          "type": "int256"
        }
      ],
      "payable": false,
      "stateMutability": "view",
      "type": "function",
      "signature": "0x27e235e3"
    },
    {
      "constant": true,
      "inputs": [],
      "name": "initialSupply",
      "outputs": [
        {
          "name": "",
          "type": "int256"
        }
      ],
      "payable": false,
      "stateMutability": "view",
      "type": "function",
      "signature": "0x378dc3dc"
    },
    {
      "constant": true,
      "inputs": [],
      "name": "owner",
      "outputs": [
        {
          "name": "",
          "type": "address"
        }
      ],
      "payable": false,
      "stateMutability": "view",
      "type": "function",
      "signature": "0x8da5cb5b"
    },
    {
      "inputs": [],
      "payable": true,
      "stateMutability": "payable",
      "type": "constructor",
      "signature": "constructor"
    },
    {
      "anonymous": false,
      "inputs": [
        {
          "indexed": true,
          "name": "_from",
          "type": "address"
        },
        {
          "indexed": true,
          "name": "_to",
          "type": "address"
        },
        {
          "indexed": false,
          "name": "amount",
          "type": "int256"
        }
      ],
      "name": "TransferToken",
      "type": "event",
      "signature": "0xcb7f062f1e4d16bda640db4c02549eef7f5acb10785cca68843cbf76e9b93089"
    },
    {
      "constant": false,
      "inputs": [
        {
          "name": "reciever",
          "type": "address"
        },
        {
          "name": "amount",
          "type": "int256"
        }
      ],
      "name": "transferCoin",
      "outputs": [
        {
          "name": "token",
          "type": "int256"
        }
      ],
      "payable": false,
      "stateMutability": "nonpayable",
      "type": "function",
      "signature": "0x07407713"
    },
    {
      "constant": true,
      "inputs": [
        {
          "name": "amount",
          "type": "int256"
        }
      ],
      "name": "validateTransaction",
      "outputs": [
        {
          "name": "sufficient",
          "type": "bool"
        }
      ],
      "payable": false,
      "stateMutability": "view",
      "type": "function",
      "signature": "0x057c206f"
    },
    {
      "constant": true,
      "inputs": [
        {
          "name": "amount",
          "type": "int256"
        },
        {
          "name": "conversionRate",
          "type": "int256"
        }
      ],
      "name": "convertToTokens",
      "outputs": [
        {
          "name": "convertedVal",
          "type": "int256"
        }
      ],
      "payable": false,
      "stateMutability": "pure",
      "type": "function",
      "signature": "0xd6e93410"
    },
    {
      "constant": true,
      "inputs": [
        {
          "name": "addr",
          "type": "address"
        }
      ],
      "name": "getBalance",
      "outputs": [
        {
          "name": "",
          "type": "int256"
        }
      ],
      "payable": false,
      "stateMutability": "view",
      "type": "function",
      "signature": "0xf8b2cb4f"
    },
    {
      "constant": true,
      "inputs": [],
      "name": "getContractDescription",
      "outputs": [
        {
          "name": "",
          "type": "address"
        }
      ],
      "payable": false,
      "stateMutability": "view",
      "type": "function",
      "signature": "0xd12bcb12"
    }
  ],
  "bytecode": "0x6080604052625265c06002556002546000803373ffffffffffffffffffffffffffffffffffffffff1673ffffffffffffffffffffffffffffffffffffffff168152602001908152602001600020819055506105b88061005f6000396000f3fe60806040526004361061008e576000357c0100000000000000000000000000000000000000000000000000000000900463ffffffff168063057c206f1461009357806307407713146100e657806327e235e314610155578063378dc3dc146101ba5780638da5cb5b146101e5578063d12bcb121461023c578063d6e9341014610293578063f8b2cb4f146102ec575b600080fd5b34801561009f57600080fd5b506100cc600480360360208110156100b657600080fd5b8101908080359060200190929190505050610351565b604051808215151515815260200191505060405180910390f35b3480156100f257600080fd5b5061013f6004803603604081101561010957600080fd5b81019080803573ffffffffffffffffffffffffffffffffffffffff169060200190929190803590602001909291905050506103ac565b6040518082815260200191505060405180910390f35b34801561016157600080fd5b506101a46004803603602081101561017857600080fd5b81019080803573ffffffffffffffffffffffffffffffffffffffff1690602001909291905050506104eb565b6040518082815260200191505060405180910390f35b3480156101c657600080fd5b506101cf610503565b6040518082815260200191505060405180910390f35b3480156101f157600080fd5b506101fa610509565b604051808273ffffffffffffffffffffffffffffffffffffffff1673ffffffffffffffffffffffffffffffffffffffff16815260200191505060405180910390f35b34801561024857600080fd5b5061025161052f565b604051808273ffffffffffffffffffffffffffffffffffffffff1673ffffffffffffffffffffffffffffffffffffffff16815260200191505060405180910390f35b34801561029f57600080fd5b506102d6600480360360408110156102b657600080fd5b810190808035906020019092919080359060200190929190505050610537565b6040518082815260200191505060405180910390f35b3480156102f857600080fd5b5061033b6004803603602081101561030f57600080fd5b81019080803573ffffffffffffffffffffffffffffffffffffffff169060200190929190505050610544565b6040518082815260200191505060405180910390f35b6000816000803373ffffffffffffffffffffffffffffffffffffffff1673ffffffffffffffffffffffffffffffffffffffff1681526020019081526020016000205412156103a257600090506103a7565b600190505b919050565b6000806103bb83613c28610537565b905060006103c882610351565b90506001151581151514156104de57816000803373ffffffffffffffffffffffffffffffffffffffff1673ffffffffffffffffffffffffffffffffffffffff16815260200190815260200160002060008282540392505081905550816000808773ffffffffffffffffffffffffffffffffffffffff1673ffffffffffffffffffffffffffffffffffffffff168152602001908152602001600020600082825401925050819055508473ffffffffffffffffffffffffffffffffffffffff163373ffffffffffffffffffffffffffffffffffffffff167fcb7f062f1e4d16bda640db4c02549eef7f5acb10785cca68843cbf76e9b93089846040518082815260200191505060405180910390a381925050506104e5565b6000925050505b92915050565b60006020528060005260406000206000915090505481565b60025481565b600160009054906101000a900473ffffffffffffffffffffffffffffffffffffffff1681565b600033905090565b6000818302905092915050565b60008060008373ffffffffffffffffffffffffffffffffffffffff1673ffffffffffffffffffffffffffffffffffffffff16815260200190815260200160002054905091905056fea165627a7a723058202aea5d05163c4747c509c1157341fd2dbfe5f5429ef60e12e297b7d4a8eb43be0029",
  "source": "pragma solidity >=0.4.21 < 0.6.0;\n\n// ERC20 Token\ncontract SimpleToken {\n\n    //create an array with all balances\n    mapping (address => int) public balances;\n    address payable public owner;\n    int public initialSupply = 5400000; // initialize supply to 5400000 units (tokens)\n\n    // log the transfer coin from one address to another\n    event TransferToken(address indexed _from, address indexed _to, int amount);\n\n    constructor () public payable {\n        /* set the owner to the creator of this contract */\n        balances[msg.sender] = initialSupply;\n    }\n\n    // send coin from account to account and return amount of tokens transfered\n    function transferCoin(address reciever, int amount) public returns (int token) {\n        // If the amount is more than what user is trying to send, return sufficient = false\n        // amount is in Eth, convert to tokens to sent to acc\n        int tokens = convertToTokens(amount, 15400);\n        bool valid = validateTransaction(tokens);\n\n        if( valid == true ) {\n            balances[msg.sender] -= int(tokens);\n            balances[reciever] += int(tokens);\n            emit TransferToken(msg.sender, reciever, tokens);\n            return int(tokens);\n        } else {\n            // transaction invalid, return 0\n            return 0;\n        }\n    }\n\n    function validateTransaction (int amount) public view returns (bool sufficient) {\n        // check if sender has enough tokens to send to account\n        if (balances[msg.sender] < amount) return false;\n        else return true;\n    }\n\n    function convertToTokens(int amount, int conversionRate) public pure returns (int convertedVal) {\n        // multiply by the conversion rate to get value of tokens equivalent to amount of ether sent\n        return amount * conversionRate;\n    }\n\n    // show account balance\n    function getBalance(address addr) public view returns (int) {\n        return int(balances[addr]);\n    }\n\n    // get contract description\n    function getContractDescription() public view returns (address) {\n        return address(msg.sender);\n    }\n\n}",
  "sourcePath": "D:/code/solidity/exercise/contracts/SimpleToken.sol",
  "compiler": {
    "name": "solc",
    "version": "0.5.0+commit.1d4f565a.Emscripten.clang"
  },
  "schemaVersion": "3.0.1",
  "updatedAt": "2019-01-25T14:52:35.134Z",
  "devdoc": {
    "methods": {}
  },
  "userdoc": {
    "methods": {}
  }
}